{
  "contractName": "Marriage",
  "abi": [
    {
      "inputs": [
        {
          "internalType": "address",
          "name": "_owner",
          "type": "address"
        },
        {
          "internalType": "string",
          "name": "_leftName",
          "type": "string"
        },
        {
          "internalType": "string",
          "name": "_leftVows",
          "type": "string"
        },
        {
          "internalType": "string",
          "name": "_rightName",
          "type": "string"
        },
        {
          "internalType": "string",
          "name": "_rightVows",
          "type": "string"
        },
        {
          "internalType": "uint256",
          "name": "_date",
          "type": "uint256"
        }
      ],
      "stateMutability": "nonpayable",
      "type": "constructor"
    },
    {
      "anonymous": false,
      "inputs": [
        {
          "indexed": false,
          "internalType": "address",
          "name": "witness",
          "type": "address"
        },
        {
          "indexed": false,
          "internalType": "uint256",
          "name": "count",
          "type": "uint256"
        }
      ],
      "name": "weddingBells",
      "type": "event"
    },
    {
      "inputs": [],
      "name": "leftName",
      "outputs": [
        {
          "internalType": "string",
          "name": "",
          "type": "string"
        }
      ],
      "stateMutability": "view",
      "type": "function"
    },
    {
      "inputs": [],
      "name": "leftVows",
      "outputs": [
        {
          "internalType": "string",
          "name": "",
          "type": "string"
        }
      ],
      "stateMutability": "view",
      "type": "function"
    },
    {
      "inputs": [],
      "name": "marriageDate",
      "outputs": [
        {
          "internalType": "uint256",
          "name": "",
          "type": "uint256"
        }
      ],
      "stateMutability": "view",
      "type": "function"
    },
    {
      "inputs": [],
      "name": "owner",
      "outputs": [
        {
          "internalType": "address",
          "name": "",
          "type": "address"
        }
      ],
      "stateMutability": "view",
      "type": "function"
    },
    {
      "inputs": [],
      "name": "rightName",
      "outputs": [
        {
          "internalType": "string",
          "name": "",
          "type": "string"
        }
      ],
      "stateMutability": "view",
      "type": "function"
    },
    {
      "inputs": [],
      "name": "rightVows",
      "outputs": [
        {
          "internalType": "string",
          "name": "",
          "type": "string"
        }
      ],
      "stateMutability": "view",
      "type": "function"
    },
    {
      "inputs": [],
      "name": "witnessCounter",
      "outputs": [
        {
          "internalType": "uint256",
          "name": "",
          "type": "uint256"
        }
      ],
      "stateMutability": "view",
      "type": "function"
    },
    {
      "inputs": [],
      "name": "witness",
      "outputs": [],
      "stateMutability": "payable",
      "type": "function"
    },
    {
      "inputs": [],
      "name": "collect",
      "outputs": [],
      "stateMutability": "nonpayable",
      "type": "function"
    },
    {
      "inputs": [],
      "name": "getBalance",
      "outputs": [
        {
          "internalType": "uint256",
          "name": "",
          "type": "uint256"
        }
      ],
      "stateMutability": "view",
      "type": "function"
    },
    {
      "inputs": [],
      "name": "getMarriageDetails",
      "outputs": [
        {
          "internalType": "address",
          "name": "",
          "type": "address"
        },
        {
          "internalType": "string",
          "name": "",
          "type": "string"
        },
        {
          "internalType": "string",
          "name": "",
          "type": "string"
        },
        {
          "internalType": "string",
          "name": "",
          "type": "string"
        },
        {
          "internalType": "string",
          "name": "",
          "type": "string"
        },
        {
          "internalType": "uint256",
          "name": "",
          "type": "uint256"
        },
        {
          "internalType": "uint256",
          "name": "",
          "type": "uint256"
        }
      ],
      "stateMutability": "view",
      "type": "function"
    }
  ],
  "bytecode": "0x60806040523480156200001157600080fd5b5060405162001126380380620011268339818101604052810190620000379190620003db565b856000806101000a81548173ffffffffffffffffffffffffffffffffffffffff021916908373ffffffffffffffffffffffffffffffffffffffff16021790555084600190805190602001906200008f929190620000ee565b508360029080519060200190620000a8929190620000ee565b508260039080519060200190620000c1929190620000ee565b508160049080519060200190620000da929190620000ee565b508060058190555050505050505062000558565b828054620000fc9062000522565b90600052602060002090601f0160209004810192826200012057600085556200016c565b82601f106200013b57805160ff19168380011785556200016c565b828001600101855582156200016c579182015b828111156200016b5782518255916020019190600101906200014e565b5b5090506200017b91906200017f565b5090565b5b808211156200019a57600081600090555060010162000180565b5090565b6000604051905090565b600080fd5b600080fd5b600073ffffffffffffffffffffffffffffffffffffffff82169050919050565b6000620001df82620001b2565b9050919050565b620001f181620001d2565b8114620001fd57600080fd5b50565b6000815190506200021181620001e6565b92915050565b600080fd5b600080fd5b6000601f19601f8301169050919050565b7f4e487b7100000000000000000000000000000000000000000000000000000000600052604160045260246000fd5b6200026c8262000221565b810181811067ffffffffffffffff821117156200028e576200028d62000232565b5b80604052505050565b6000620002a36200019e565b9050620002b1828262000261565b919050565b600067ffffffffffffffff821115620002d457620002d362000232565b5b620002df8262000221565b9050602081019050919050565b60005b838110156200030c578082015181840152602081019050620002ef565b838111156200031c576000848401525b50505050565b6000620003396200033384620002b6565b62000297565b9050828152602081018484840111156200035857620003576200021c565b5b62000365848285620002ec565b509392505050565b600082601f83011262000385576200038462000217565b5b81516200039784826020860162000322565b91505092915050565b6000819050919050565b620003b581620003a0565b8114620003c157600080fd5b50565b600081519050620003d581620003aa565b92915050565b60008060008060008060c08789031215620003fb57620003fa620001a8565b5b60006200040b89828a0162000200565b965050602087015167ffffffffffffffff8111156200042f576200042e620001ad565b5b6200043d89828a016200036d565b955050604087015167ffffffffffffffff811115620004615762000460620001ad565b5b6200046f89828a016200036d565b945050606087015167ffffffffffffffff811115620004935762000492620001ad565b5b620004a189828a016200036d565b935050608087015167ffffffffffffffff811115620004c557620004c4620001ad565b5b620004d389828a016200036d565b92505060a0620004e689828a01620003c4565b9150509295509295509295565b7f4e487b7100000000000000000000000000000000000000000000000000000000600052602260045260246000fd5b600060028204905060018216806200053b57607f821691505b60208210811415620005525762000551620004f3565b5b50919050565b610bbe80620005686000396000f3fe60806040526004361061009c5760003560e01c80638da5cb5b116100645780638da5cb5b146101575780639d3ec1a714610182578063a5f41a9c146101b3578063e5225381146101de578063e7306f2d146101f5578063ee5f7e1d146102205761009c565b806312065fe0146100a157806325f95410146100cc57806339046e8b146100f75780634d7d8a60146101015780637869900e1461012c575b600080fd5b3480156100ad57600080fd5b506100b661024b565b6040516100c3919061088d565b60405180910390f35b3480156100d857600080fd5b506100e1610253565b6040516100ee919061088d565b60405180910390f35b6100ff610259565b005b34801561010d57600080fd5b506101166102a9565b604051610123919061088d565b60405180910390f35b34801561013857600080fd5b506101416102af565b60405161014e9190610941565b60405180910390f35b34801561016357600080fd5b5061016c61033d565b60405161017991906109a4565b60405180910390f35b34801561018e57600080fd5b50610197610361565b6040516101aa97969594939291906109bf565b60405180910390f35b3480156101bf57600080fd5b506101c86105e2565b6040516101d59190610941565b60405180910390f35b3480156101ea57600080fd5b506101f3610670565b005b34801561020157600080fd5b5061020a610731565b6040516102179190610941565b60405180910390f35b34801561022c57600080fd5b506102356107bf565b6040516102429190610941565b60405180910390f35b600047905090565b60065481565b610266600160065461084d565b6006819055507f94b81b297a338f9c77eb235d13399188f44331212484dc1eaa6ffb770e614a573360065460405161029f929190610a4a565b60405180910390a1565b60055481565b600480546102bc90610aa2565b80601f01602080910402602001604051908101604052809291908181526020018280546102e890610aa2565b80156103355780601f1061030a57610100808354040283529160200191610335565b820191906000526020600020905b81548152906001019060200180831161031857829003601f168201915b505050505081565b60008054906101000a900473ffffffffffffffffffffffffffffffffffffffff1681565b600060608060608060008060008054906101000a900473ffffffffffffffffffffffffffffffffffffffff1660016002600360046005546006548580546103a790610aa2565b80601f01602080910402602001604051908101604052809291908181526020018280546103d390610aa2565b80156104205780601f106103f557610100808354040283529160200191610420565b820191906000526020600020905b81548152906001019060200180831161040357829003601f168201915b5050505050955084805461043390610aa2565b80601f016020809104026020016040519081016040528092919081815260200182805461045f90610aa2565b80156104ac5780601f10610481576101008083540402835291602001916104ac565b820191906000526020600020905b81548152906001019060200180831161048f57829003601f168201915b505050505094508380546104bf90610aa2565b80601f01602080910402602001604051908101604052809291908181526020018280546104eb90610aa2565b80156105385780601f1061050d57610100808354040283529160200191610538565b820191906000526020600020905b81548152906001019060200180831161051b57829003601f168201915b5050505050935082805461054b90610aa2565b80601f016020809104026020016040519081016040528092919081815260200182805461057790610aa2565b80156105c45780601f10610599576101008083540402835291602001916105c4565b820191906000526020600020905b8154815290600101906020018083116105a757829003601f168201915b50505050509250965096509650965096509650965090919293949596565b600380546105ef90610aa2565b80601f016020809104026020016040519081016040528092919081815260200182805461061b90610aa2565b80156106685780601f1061063d57610100808354040283529160200191610668565b820191906000526020600020905b81548152906001019060200180831161064b57829003601f168201915b505050505081565b60008054906101000a900473ffffffffffffffffffffffffffffffffffffffff1673ffffffffffffffffffffffffffffffffffffffff163373ffffffffffffffffffffffffffffffffffffffff16146106c857600080fd5b60008054906101000a900473ffffffffffffffffffffffffffffffffffffffff1673ffffffffffffffffffffffffffffffffffffffff166108fc479081150290604051600060405180830381858888f1935050505015801561072e573d6000803e3d6000fd5b50565b6001805461073e90610aa2565b80601f016020809104026020016040519081016040528092919081815260200182805461076a90610aa2565b80156107b75780601f1061078c576101008083540402835291602001916107b7565b820191906000526020600020905b81548152906001019060200180831161079a57829003601f168201915b505050505081565b600280546107cc90610aa2565b80601f01602080910402602001604051908101604052809291908181526020018280546107f890610aa2565b80156108455780601f1061081a57610100808354040283529160200191610845565b820191906000526020600020905b81548152906001019060200180831161082857829003601f168201915b505050505081565b6000818361085b9190610b03565b90508281101561086e5761086d610b59565b5b92915050565b6000819050919050565b61088781610874565b82525050565b60006020820190506108a2600083018461087e565b92915050565b600081519050919050565b600082825260208201905092915050565b60005b838110156108e25780820151818401526020810190506108c7565b838111156108f1576000848401525b50505050565b6000601f19601f8301169050919050565b6000610913826108a8565b61091d81856108b3565b935061092d8185602086016108c4565b610936816108f7565b840191505092915050565b6000602082019050818103600083015261095b8184610908565b905092915050565b600073ffffffffffffffffffffffffffffffffffffffff82169050919050565b600061098e82610963565b9050919050565b61099e81610983565b82525050565b60006020820190506109b96000830184610995565b92915050565b600060e0820190506109d4600083018a610995565b81810360208301526109e68189610908565b905081810360408301526109fa8188610908565b90508181036060830152610a0e8187610908565b90508181036080830152610a228186610908565b9050610a3160a083018561087e565b610a3e60c083018461087e565b98975050505050505050565b6000604082019050610a5f6000830185610995565b610a6c602083018461087e565b9392505050565b7f4e487b7100000000000000000000000000000000000000000000000000000000600052602260045260246000fd5b60006002820490506001821680610aba57607f821691505b60208210811415610ace57610acd610a73565b5b50919050565b7f4e487b7100000000000000000000000000000000000000000000000000000000600052601160045260246000fd5b6000610b0e82610874565b9150610b1983610874565b9250827fffffffffffffffffffffffffffffffffffffffffffffffffffffffffffffffff03821115610b4e57610b4d610ad4565b5b828201905092915050565b7f4e487b7100000000000000000000000000000000000000000000000000000000600052600160045260246000fdfea26469706673582212202d357756bcd0562653b4c7446ed5393576b46350faba5731990e823ea0a6271664736f6c634300080b0033",
  "immutableReferences": {},
  "source": "// SPDX-License-Identifier: MIT\npragma solidity ^0.8.11;\n\ncontract MarriageRegistry {\n    address[] public registeredMarriages;\n    address public newMarriage;\n    event ContractCreated(address contractAddress);\n\n    function createMarriage(\n        string memory _leftName, \n        string memory _leftVows, \n        string memory _rightName, \n        string memory _rightVows, \n        uint _date\n    ) public returns (address) {\n        newMarriage = address(new Marriage(msg.sender, _leftName, _leftVows, _rightName, _rightVows, _date));\n        emit ContractCreated(newMarriage);\n        registeredMarriages.push(newMarriage);\n\n        return newMarriage;\n    }\n\n    function getDeployedMarriages() public view returns (address[] memory) {\n        return registeredMarriages;\n    }\n}\n\n/**\n * @title Marriage\n * @dev The Marriage contract provides basic storage for names and vows, and has a simple function\n * that lets people witness their wedding to celebrate\n */\ncontract Marriage {\n\n    event weddingBells(address witness, uint256 count);\n\n    // Owner address\n    address public owner;\n\n    /// Marriage Vows\n    string public leftName;\n    string public leftVows;\n    string public rightName;\n    string public rightVows;\n    // date public marriageDate;\n    uint public marriageDate;\n    \n    // Bell counter\n    uint256 public witnessCounter;\n\n    /**\n    * @dev Throws if called by any account other than the owner\n    */\n    modifier onlyOwner() {\n        require(msg.sender == owner);\n        _;\n    }\n\n    /**\n    * @dev Constructor sets the original `owner` of the contract to the sender account, and\n    * commits the marriage details and vows to the blockchain\n    */\n    constructor(\n        address _owner, \n        string memory _leftName, \n        string memory _leftVows, \n        string memory _rightName, \n        string memory _rightVows, \n        uint _date\n    ) {\n        // TODO: Assert statements for year, month, day\n        owner = _owner;\n        leftName = _leftName;\n        leftVows = _leftVows;\n        rightName = _rightName;\n        rightVows = _rightVows;\n        marriageDate = _date; \n    }\n\n    /**\n    * @dev Adds two numbers, throws on overflow.\n    */\n    function add(uint256 a, uint256 b) private pure returns (uint256 c) {\n        c = a + b;\n        assert(c >= a);\n        return c;\n    }\n\n    /**\n    * @dev witness is a payable function that allows people to celebrate the couple's marriage, and\n    * also send Ether to the marriage contract\n    */\n    function witness() public payable {\n        witnessCounter = add(1, witnessCounter);\n        emit weddingBells(msg.sender, witnessCounter);\n    }\n\n    /**\n    * @dev withdraw allows the owner of the contract to withdraw all ether collected by bell witnesses\n    */\n    function collect() external onlyOwner {\n        payable(owner).transfer(address(this).balance);\n    }\n\n    /**\n    * @dev withdraw allows the owner of the contract to withdraw all ether collected by bell witnesses\n    */\n    function getBalance() public view returns (uint) {\n        return address(this).balance;\n    }\n\n    /**\n    * @dev returns contract metadata in one function call, rather than separate .call()s\n    * Not sure if this works yet\n    */\n    function getMarriageDetails() public view returns (\n        address, string memory, string memory, string memory, string memory, uint, uint256) {\n        return (\n            owner,\n            leftName,\n            leftVows,\n            rightName,\n            rightVows,\n            marriageDate,\n            witnessCounter\n        );\n    }\n}",
  "sourcePath": "/Users/sihangchen/Documents/Code/react-box-test/contracts/MarriageRegistry.sol",
  "compiler": {
    "name": "solc",
    "version": "0.8.11+commit.d7f03943.Emscripten.clang"
  },
  "schemaVersion": "3.4.4",
  "updatedAt": "2021-12-31T01:14:47.226Z",
  "devdoc": {
    "details": "The Marriage contract provides basic storage for names and vows, and has a simple function that lets people witness their wedding to celebrate",
    "kind": "dev",
    "methods": {
      "collect()": {
        "details": "withdraw allows the owner of the contract to withdraw all ether collected by bell witnesses"
      },
      "constructor": {
        "details": "Constructor sets the original `owner` of the contract to the sender account, and commits the marriage details and vows to the blockchain"
      },
      "getBalance()": {
        "details": "withdraw allows the owner of the contract to withdraw all ether collected by bell witnesses"
      },
      "getMarriageDetails()": {
        "details": "returns contract metadata in one function call, rather than separate .call()s Not sure if this works yet"
      },
      "witness()": {
        "details": "witness is a payable function that allows people to celebrate the couple's marriage, and also send Ether to the marriage contract"
      }
    },
    "title": "Marriage",
    "version": 1
  },
  "userdoc": {
    "kind": "user",
    "methods": {
      "leftName()": {
        "notice": "Marriage Vows"
      }
    },
    "version": 1
  }
}